8=FIX.4.4|9=45|35=0|49=TW|56=ISLD|34=3|52=20000426-12:05:06|10=220|